:1000000000308A0042280000FF00030E8301A10097
:100010007F08A0000A08A7008A01A00E0408A20019
:100020007708A3007808A4007908A5007A08A6003C
:10003000831383128B1E1E280B192F28220884007D
:100040002308F7002408F8002508F9002608FA001C
:1000500027088A00210E8300FF0E7F0E0900410849
:100060000319C203C10B3F28C208031D3F282B30D0
:100070002A0784008313C2010008C10028140B1151
:100080008A111E2803081F3983002810A810A9010F
:10009000AA010130C200F430C10007309F00831371
:1000A000F430AB00FA30AC00C830AD009630AE0092
:1000B0007830AF006430B0005030B1003C30B20056
:1000C0003230B3002830B400B501FE30B60038300D
:1000D000B700DD30B8007D30B9003B30BA00773072
:1000E000BB00F730BC003C30BD00FF30BE007F30AD
:1000F000BF00C00183160108C03902388100831295
:100100008B16C0308B0436302A0784008313000816
:10011000C30083168601831243088600FE308316CF
:10012000850083120510A81CAB28281C9E28FE30D1
:10013000831685000130831285062810FE30831651
:10014000850083120519AA28A810FE3083168500A1
:1001500083120510FC28FE30831685008312851853
:10016000B728A814FE308316850083120514FE30CC
:100170008316850083128519DA28A9012908643CB1
:10018000031CCA28FE30831685008312851DA90131
:10019000A90ABE282A08083C031CDA28AA0A363015
:1001A0002A07840083130008C30083168601831284
:1001B00043088600FE30831685008312051AFC284A
:1001C000A9012908643C031CED28FE308316850034
:1001D0008312051EA901A90AE128AA080319FC280F
:1001E000AA0336302A07840083130008C30083164D
:0C01F000860183124308860093286300F8
:02400E00223F4F
:00000001FF
;PIC16F628A
;CRC=A185  CREATED="12-jun-24 10:10"
