:1000000000308A004B28000000300C1E05289900A3
:1000100027080C1E09289900080010300C1E0E2815
:1000200099008C1E11281A08F8008A110A126F28EC
:1000300002300C1E1928990027080C1E1D28990053
:10004000080031300C1E222899008C1E25281A0821
:10005000FA01F8007A08F9008A110A127A280130A8
:100060000C1E3028990027080C1E3428990008001F
:1000700011300C1E392899008C1E3C281A08013CAE
:10008000031D46280030F800482848280130F800B1
:100090008A110A128E2803081F3983000C30831638
:1000A0009900A23098009030831298002010A2018D
:1000B000A101A4011930A300A6010530A5008316F3
:1000C0001F149F141F159F1107309C008313831268
:1000D000A201A10120100130A70004200D2820104A
:1000E00078182014201C6E28A70104200130A700D6
:1000F000182021287908A2007808A10022082402EB
:10010000031C8828031D792823082102031C792851
:10011000A70118200130A7002F20382820107818B8
:0E012000201420188D28A7012F2068286300C6
:02400E00723FFF
:00000001FF
;PIC16F877A
;CRC=A350  CREATED="02-jul-24 19:05"
