:1000000002308A00E42A0000FF00030E8301A100F1
:100010000A08A0008A010408A2007708A300780853
:10002000A4007908A5007A08A60003170D08031399
:10003000A70003170F080313A80003170C080313E6
:10004000A90003170E080313AA00831383128B1E43
:100050002B280B194C28220884002308F7002408B9
:10006000F8002508F9002608FA00270803178D0074
:100070000313280803178F000313290803178C00A4
:1000800003132A0803178E00031320088A00210E89
:100090008300FF0E7F0E09008A110A124F28010803
:1000A000063ECD004D088100AC0B5E28FA30AC0056
:1000B0002B14AD0B5E280430AD00AB140B118A116C
:1000C0000A122B28D4326D383A10251834267505BB
:1000D00000004808003A03197A28013A03198028D9
:1000E000033A03198628013A03198D28073A0319A0
:1000F00093289B28831685018312490885009B2835
:10010000831686018312490886009B28F9308316DE
:1001100087008312490887009B2883168801831271
:10012000490888009B288316091089100911831239
:10013000490889009B2808000D30F700F70B9E281E
:1001400083160910831209108316091183120911ED
:100150000330C8004208C900692083168910831241
:1001600089140D30F700F70BB3288316891083121A
:10017000891008003E308400831300080319CE283C
:100180000130F800F701F70BC328F80BC2284A30FA
:10019000F700F70BC928CC28800BC028080083166D
:1001A0008910831289103830C2009C200F30BE00A5
:1001B000BA200130C2009C200A30BE00BA200C30A8
:1001C000C2009C200A30BE00BA200630C2009C202B
:1001D0000A30BE00BA208A110A123C2B8E30F7007A
:1001E0004108F8004008F900FA01F808031D022947
:1001F0007908F800F9010830F702F808031D022910
:10020000F7010A290310F81B0929F90DF80DF70366
:100210000229F8130800400803197B29C800440884
:1002200003197B29C80703181C297F30C802031C47
:100230007B2903197B2920298130C80703187B29D2
:100240004808F700F801F901FA014108CC00CC1781
:100250004208CB004308CA001830C800C9014A1C34
:1002600049294708FA07031C3B29F90A031D3B29C2
:10027000F80A0319C9174608F907031C4229F80AA6
:100280000319C9174508C200C2174208F807031826
:10029000C917C90DF80CF90CFA0CCC0CCB0CCA0C14
:1002A0000310C80B2E290130F70703187B29F81B10
:1002B0006029CC0DFA0DF90DF80DF70303197B2910
:1002C000CC1F7129FA0A031D7129F90A031D71292E
:1002D000F80A031D7129F80CF90CFA0CF70A031936
:1002E0007B294108C9004508C906C91F7929F817A3
:1002F0007F29F8137F29F701F801F901FA010800B5
:100300008E30F7003E08F7023F08F9004008F80079
:10031000F917F708031997290310F908031D932902
:10032000F80803199729F90CF80CF70B8C29BF1F53
:100330009E29F809F909F80A0319F90A08003F0B80
:10034000A229A5294030C000A629C00101303E02E3
:10035000C00740088038C100C2009C200800C601C8
:100360000408C5004610831B46143F0EF038C10038
:10037000C107E23EC200323EC4003F080F39C20747
:10038000C207C407E93EC300C307C3073E0E0F39C7
:10039000C307C407C30DC40DC409C40D3E080F39FB
:1003A000C407C10D0730C0000A30C407C303031CD3
:1003B000D529C307C203031CD929C207C103031CE3
:1003C000DD29C107C003031CE129403084008313E9
:1003D00007304505451384074430040203194517C7
:1003E0000008F700031DFC29451BFC29451A2A2A91
:1003F000C519FC292030FF29C51545123030F707F3
:10040000BF010408BE003F10831B3F147708C700DC
:100410000D30F700F70B0A2A83160910831209140E
:1004200083160911831209110330C8004708C90057
:10043000692083168910831289140D30F700F70B99
:100440001F2A83168910831289103E0884008313A3
:100450003F188317840A451FEC2908000B08BF00CA
:100460008B13831603178C170C14000000008312E3
:100470000313BF1B8B170318662A03170C087F3959
:100480000313BF0003170D080313C00003170F0861
:100490000313C1003F080C1E4B2A990040080317A4
:1004A0008D000313410803178F0003130B08C200CC
:1004B0008B13831603178C170C1400000000831293
:1004C0000313C21B8B17BE0B662A862A03170C0D5B
:1004D0000E0D7F390313BF0003170D080313C0006F
:1004E00003170F080313C1003F080C1E752A99005B
:1004F000400803178D000313410803178F008D0A6E
:1005000003198F0A03100313BE0B2E2A8A110A1235
:10051000D52BC6010408C5004610831B46143F0EA8
:10052000F038C100C107E23EC200323EC4003F08BD
:100530000F39C207C207C407E93EC300C307C30798
:100540003E0E0F39C307C407C30DC40DC409C40D43
:100550003E080F39C407C10D0730C0000A30C40778
:10056000C303031CAF2AC307C203031CB32AC20779
:10057000C103031CB72AC107C003031CBB2A4030B8
:100580008400831307304505451384074430040273
:10059000031945170008F700031DD62A451BD62A64
:1005A000451ADE2AC519D62A2030D92AC515451282
:1005B0003030F70777080C1EDB2A9900840A451FA4
:1005C000C62A8A110A12DC2B03081F39830019304E
:1005D00083169900A6309800903083129800FA3064
:1005E000AC000430AD000D30B9003230B8004830F6
:1005F000B7007E30B600BD01BC01BB018230BA003D
:1006000083161F149F141F159F1107309C0083131E
:100610001F109F141F119F111F1383121F179F1765
:1006200083169F1783121F1483160108C0390138DF
:1006300081008730831290000030F8000438920067
:10064000C73083169200F9308700831207110C30EF
:100650009700F93083168700831287100C309D00B5
:1006600095011708CF3997009B011D08CF399D00D0
:100670008B16C0308B04CF282B1C1E2C2B10003067
:10068000F8001F08C73978049F000D30F700F70BFA
:10069000472B1F151F194A2B83161E088312AE0005
:1006A0001E08AF000830F8001F08C73978049F0003
:1006B0000D30F700F70B5A2B1F151F195D2B1E0865
:1006C000FA0083161E088312BE001E08BF00C10078
:1006D0003E08C000EE207A08C3007908C2007808FE
:1006E000C1007708C0003908C7003808C6003708BD
:1006F000C5003608C4000B217A08C1007908C00083
:100700007808BF007708BE0080217908B10078081A
:10071000B0001030F8001F08C73978049F000D3072
:10072000F700F70B912B1F151F19942B1E08FA00C9
:1007300083161E088312BE001E08BF00C1003E08BB
:10074000C000EE207A08C3007908C2007808C10012
:100750007708C0003908C7003808C6003708C50048
:100760003608C4000B217A08C1007908C000780857
:10077000BF007708BE0080217908B3007808B20076
:100780000130BE00BF009F21093084002F08BF0048
:100790002E08BE00AF21623003178D0000308F009D
:1007A000031006300313BE002E2A093084002F08E0
:1007B000BF002E08BE00892A0A300C1EDD2B9900CE
:1007C0000730BE000130BF009F210930840031088E
:1007D000BF003008BE00AF210D30BE000130BF00A9
:1007E0009F21093084003308BF003208BE00AF21CA
:1007F0003108F9003008F800F90CF80CF90CF80C85
:10080000F90C78089500F90C790C3039F7001708C5
:10081000CF39770497003308F9003208F800F90C53
:10082000F80CF90CF80CF90C78089B00F90C790C11
:100830003039F7001D08CF3977049D00AB1C5F2CC1
:10084000AB100F08FA000E08F7000F087A02031D1C
:10085000212C7708BE007A08BF003F08C1003E087F
:10086000C000EE207A08C3007908C2007808C100F1
:100870007708C0003D08C7003C08C6003B08C5001B
:100880003A08C4000B217A08C1007908C000780832
:10089000BF007708BE0080217908B5007808B40051
:1008A0008E018F018E010130BE000230BF009F21FA
:1008B000083084003508BF003408BE00AF213C2B4F
:0208C0006300D3
:02400E00713F00
:00000001FF
;PIC16F877A
;CRC=081A  CREATED="29-mai-24 10:51"
