:1000000000308A00C1280000FF00030E8301A10018
:100010000A08A0008A010408A2007708A300780853
:10002000A4007908A5007A08A600831383128B1E0A
:100030001B280B192C28220884002308F700240809
:10004000F8002508F9002608FA0020088A00210E89
:100050008300FF0E7F0E09008A110A122F282C0838
:10006000AE00AE08031D3928831688013F30831285
:1000700088002E0B402883168801063083128800E2
:100080002E08023C031D492883168801573083122D
:1000900088002E08033C031D5228831688014F3028
:1000A000831288002E08043C031D5B2883168801F8
:1000B0006630831288002E08053C031D64288316D1
:1000C00088015D30831288002E08063C031D6D28D0
:1000D000831688017030831288002E08073C031DA8
:1000E000752883168801831288012E08083C031D99
:1000F0007E28831688017F30831288002E08093CF1
:10010000031D8728831688016F3083128800AD088D
:10011000031D932883160612831206128316861374
:1001200083128617B7282D0B9E28831686138312F9
:1001300086138316061383120617B7282D08023C70
:10014000031DAB288316061383120613831686122B
:1001500083128616B7282D08033C031DB728831683
:100160008612831286128316061283120616013037
:10017000AD072D08043C0319AD010B118A110A12B9
:100180001B2803081F3983002710AB01AA01A9010E
:10019000A801AC01AD0183161F149F141F159F11F8
:1001A00007309C0083130108C03902388100831294
:0A01B0008B16C0308B04DB286300BF
:02400E00723FFF
:00000001FF
;PIC16F877A
;CRC=9962  CREATED="29-mai-24 17:16"
