:1000000000308A00EA280000FF00030E8301A100EF
:100010000A08A0008A010408A2007708A300780853
:10002000A4007908A5007A08A600831383128B1E0A
:100030001B280B192C28220884002308F700240809
:10004000F8002508F9002608FA0020088A00210E89
:100050008300FF0E7F0E09008A110A122F28B90AA9
:100060000319BA0A3908883C031D3D283A08133C95
:10007000031D3D28A714BA01B901BB0A0319BC0A24
:100080003B08F43C031D49283C0B49282715BC01BB
:10009000BB01A80A0B118A110A121B28A901290801
:1000A000AA00AB00AC003E08023C03186628FF3AE9
:1000B000031D5E283D08E73C03186628E830BD02B2
:1000C0000330031C0430BE02AC0A5328BE08031DD3
:1000D0006D283D08633C031875286430BD0200306C
:1000E000031C0130BE02AB0A6628BE08031D7C2833
:1000F0003D08093C031884280A30BD020030031C67
:100100000130BE02AA0A75283D08A9000800A80807
:10011000031D9E28831686138312861383160612E8
:10012000831206162D302907840083130008BD00B2
:100130008316880183123D088800E7282808023CBE
:10014000031DB62883160612831206128316861222
:10015000831286162D302A07840083130008BD0001
:100160008316880183123D088800E7282808043C8C
:10017000031DCE2883168612831286128316061359
:10018000831206172D302B07840083130008BD004F
:100190008316880183123D088800E7282808063C5A
:1001A000031DE7288316061383120613831686138E
:1001B000831286172D302C07840083130008BD009E
:1001C0008316880183123D088800FF30A8008A1139
:1001D0000A12472903081F3983002714A710271183
:1001E000A801A901AA01AB01AC01B801B701BA018C
:1001F000B901BC01BB0183161F149F141F159F1169
:1002000007309C0083133F308312AD000630AE00F0
:100210005B30AF004F30B0006630B1006D30B200DF
:100220007D30B3000730B4007F30B5006F30B600CA
:1002300083161F109F141F119F111F1383121F1766
:100240009F1783169F1783121F1483160108C03946
:100250000138810083128B16C0308B040830F800FF
:100260001F08C73978049F000D30F700F70B3629B7
:100270001F151F19392983161E088312B7001E087F
:10028000B8003808BE003708BD004E208728A71CDC
:100290006C290130A706003027180130BD003D0D44
:1002A000F700F70DF70DF830F7051F08C739770489
:1002B0009F000D30F700F70B5B291F151F195E29F2
:1002C00083161E088312B7001E08B8003808BE0047
:1002D0003708BD004E20A710271D892927187A2925
:1002E0001F151F19712983161E088312B7001E08D7
:1002F000B80083291F151F197B2983161E08831236
:10030000B7001E08B8003808BE003708BD004E20F0
:06031000271146296300DD
:02400E00713F00
:00000001FF
;PIC16F877A
;CRC=E995  CREATED="06-jun-24 14:20"
