:1000000008308A0000280000FF00030E8301A100D1
:100010000A08A0008A010408A2007708A300780853
:10002000A4007908A5007A08A60003170D08031399
:10003000A70003170F080313A80003170C080313E6
:10004000A90003170E080313AA00831383128B1E43
:100050002B280B194C28220884002308F7002408B9
:10006000F8002508F9002608FA00270803178D0074
:100070000313280803178F000313290803178C00A4
:1000800003132A0803178E00031320088A00210E89
:100090008300FF0E7F0E09008A110A124F28AE0A54
:1000A0000319AF0A2E08F43C031D5B282F0B5B28B5
:1000B000AF01AE01AC140B118A110A122B28531D8B
:1000C0004F230000521D4F230001531D4F230001F9
:1000D000521D4F230001531D4F270000521D4F2377
:1000E0000001521D4F2700002533AA2120100000D7
:1000F000D037741D2518342675005408003A0319AA
:100100008E28013A03199428033A03199A28013AD0
:100110000319A228073A0319A828B02883168501D5
:10012000831255088500B02883168601831255086E
:100130008600B0280030AB00831687018312550873
:100140008700B02883168801831255088800B028DC
:100150008316091089100911831255088900B028E7
:1001600008001A30F700F70BB328000083160910B7
:100170008312091083160911831209110330D40068
:100180004A08D5007D2083168910831289141A30FD
:10019000F700F70BC9280000831689108312891015
:1001A000080046308400831300080319E428023055
:1001B000F800F701F70BDA28F80BD9289730F70089
:1001C000F70BE028800BD7280800831689108312CC
:1001D00089103830CA00B1200F30C600D12001305C
:1001E000CA00B1200A30C600D1200C30CA00B120AC
:1001F0000A30C600D1200630CA00B1200A30C6003D
:10020000D1208A150A124F28470B07290A294030A6
:10021000C8000B29C80101304602C80748088038C9
:10022000C900CA00B12008001A30F700F70B1629E0
:100230000000831609108312091483160911831212
:1002400009110330D4005308D5007D20831689108E
:10025000831289141A30F700F70B2C29000083163B
:1002600089108312891008000B08C6008B138316AF
:1002700003178C170C140000000083120313C61B15
:100280008B1703170C087F39031988290313C6003D
:1002900003170D080313C70003170F080313C80043
:1002A0004608D3001421470803178D00031348089C
:1002B00003178F0003130B08C9008B138316031752
:1002C0008C170C140000000083120313C91B8B173A
:1002D00003170C0D0E0D7F39031988290313C6006F
:1002E00003170D080313C70003170F080313C800F3
:1002F0004608D3001421470803178D00031348084C
:1003000003178F008D0A03198F0A0313342903176B
:100310000313080053080319FA29DB0057080319CF
:10032000FA29DB0703189B297F30DB02031CFA291B
:100330000319FA299F298130DB070318FA295B0882
:10034000F700F801F901FA015408DF00DF1755083A
:10035000DE005608DD001830DB00DC015D1CC8291A
:100360005A08FA07031CBA29F90A031DBA29F80A20
:100370000319DC175908F907031CC129F80A0319E6
:10038000DC175808D500D5175508F8070318DC17EF
:10039000DC0DF80CF90CFA0CDF0CDE0CDD0C031094
:1003A000DB0BAD290130F7070318FA29F81BDF2909
:1003B000DF0DFA0DF90DF80DF7030319FA29DF1F08
:1003C000F029FA0A031DF029F90A031DF029F80A99
:1003D000031DF029F80CF90CFA0CF70A0319FA2995
:1003E0005408DC005808DC06DC1FF829F817FE2941
:1003F000F813FE29F701F801F901FA010800831842
:10040000042A5B3084008313F701F801F901FA0133
:10041000DB01DC01DD01DE015A08590458045704F0
:100420000319422A2030DF000310D30DD40DD50D5F
:10043000D60DDB0DDC0DDD0DDE0D5A085E02031D51
:100440002B2A59085D02031D2B2A58085C02031D44
:100450002B2A57085B02031C3C2A5708DB0258086A
:10046000031C580FDC025908031C590FDD025A08FF
:10047000031C5A0FDE020314F70DF80DF90DFA0DE7
:10048000DF0B142A5B088000840A5C088000840A61
:100490005D088000840A5E08800008000408CB0024
:1004A0004A08CD0003196D2A4908D6004808D5002E
:1004B0004708D4004608D300DA01D9012030D8001B
:1004C0008230D7008A217A08C9007908C8007808E4
:1004D000C7007708C600CD0B542A4908D600480843
:1004E000D5004708D4004608D3005308B63CD300D3
:1004F000FA015408D700D4170310D40CD50CD60C2D
:10050000FA0CF90CF80CF70CD30B7C2AD71F932AA2
:10051000F709F809F909FA09F70A0319F80A03199A
:10052000F90A0319FA0A7A08C9007908C800780894
:10053000C7007708C600C91FAA2ACB03CB16C60975
:10054000C709C809C909C60A0319C70A0319C80A8D
:100550000319C90A3B30D2009A30D100CA30D0000A
:10056000CF010A30CD004A080319CB0A8314463064
:10057000840083134908D6004808D5004708D400F2
:100580004608D3005208DA005108D9005008D800B4
:100590004F08D700FF217808F708031DE22A4A0A0E
:1005A0004D020319E22A4B080319E42A0F394D02C0
:1005B0000319DC2A0318142BCB1B142B4B1BE42A26
:1005C0002030102B2030CB05CB1EF22ACB124A084C
:1005D000031DCB037708CB002D30D30014214B082B
:1005E000F700CB014A084D02031D002B7708CB0012
:1005F0002E30D30014214B08F7002030CB050030FB
:100600003030CB1E102BCB124A08031DCB037708CA
:10061000CB002D30D30014214B08F700CB01303034
:10062000F7077708D300142183105208D600510829
:10063000D5005008D4004F08D300DA01D901D80101
:100640000A30D700FF217A08D2007908D100780853
:10065000D0007708CF00CD0BB62A08004708CE009F
:100660004B08CE06CE1F392B03110310C71B0314F2
:100670006C2B4708CE004A08CF004608CF0203196A
:10068000472BCE1F6C2B0308013A83006C2B4B08C1
:10069000CF004708CF020319532BCE1F6C2B030842
:1006A000013A83006C2B4C08CF004808CF02031995
:1006B0005F2BCE1F6C2B0308013A83006C2B4D0877
:1006C000CF004908CF0203196B2BCE1F6C2B0308F8
:1006D000013A83006C2B0310080080308318CF068A
:1006E000D401D5014B08D3004F08D3064A0803199B
:1006F0005D2CD200F7004E080319662CD2020319B4
:10070000022C031CC02B4F08D800D8175008D70064
:100710005108D600D5010310D80CD70CD60CD50C37
:10072000D20B8A2BD31F972B54147A2C54105210AF
:1007300054164D30840083138F2C5412D31BAA2BD4
:10074000521CB52BD80CD70CD60CD50CF70A0319B4
:10075000752CB52BD81BB82B0310D50DD60DD70D86
:10076000D80DF7030319752CAA2B5417222C5413F8
:100770004B08D300D31FBE2BD8176E2CD8136E2C6A
:100780004E08D200F7004A08D2024B08D800D8170A
:100790004C08D7004D08D600D5010310D80CD70C53
:1007A000D60CD50CD20BCC2BD31FD92BD4147A2C2E
:1007B000D4105210D4165130840083138F2CD412CD
:1007C000D31BEC2B521CF72BD80CD70CD60CD50C0A
:1007D000F70A0319752CF72BD81BFA2B0310D50D2C
:1007E000D60DD70DD80DF7030319752CEC2BD417A4
:1007F000222CD4134F08D300D31F002CD8176E2CF3
:10080000D8136E2C4F08D800D8175008D7005108BD
:10081000D600D31F0F2CD81354157A2C5411D501A0
:1008200052104D30840083138F2CD31B382C4B086F
:10083000D300521C222CD80CD70CD60CD50CF70A9E
:100840000319752CD51F332CD60A031D332CD70A58
:10085000031D332CD80A031D332CD80CD70CD60C0F
:10086000F70A0319752C541BB72BD41BF92B572CE3
:100870008030D806D81F402C7A2C4F08D3004D2C3E
:100880004B08D300D808031D4D2CD708031D4D2C51
:10089000D608031D4D2CF7016E2CD81B572C0310C6
:1008A000D50DD60DD70DD80DF70B4D2C752CD31FAC
:1008B0005B2CD8176E2CD8136E2C4E08F7004F08FF
:1008C000D8005008D7005108D6006E2C4A08F7000F
:1008D0004B08D8004C08D7004D08D6005808F8003F
:1008E0005708F9005608FA00AD2CF701F801F90194
:1008F000FA01AD2CD501D609D709D809D509D50AF1
:10090000031D882CD60A031D882CD70A0319D80A80
:100910005418962BD418D82B54190E2C3D2C0008A3
:10092000D607031C992CD70A031D992CD80A031942
:10093000521484030008D707031CA12CD80A0319FA
:10094000521484030008801F803AD80703185214F9
:10095000541A9D2BD41ADF2B152C08008E30F7006B
:100960004708F8004608F900FA01F808031DC22CF0
:100970007908F800F9010830F702F808031DC22CC5
:10098000F701CA2C0310F81BC92CF90DF80DF70359
:10099000C22CF81308000B08C7008B13831603172B
:1009A0008C170C140000000083120313C71B8B1755
:1009B0000318022D03170C087F390313C700031710
:1009C0000D080313C80003170F080313C9004708D5
:1009D000D3001421480803178D0003134908031797
:1009E0008F0003130B08CA008B13831603178C1791
:1009F0000C140000000083120313CA1B8B17C60BD4
:100A0000022D212D03170C0D0E0D7F390313C70086
:100A100003170D080313C80003170F080313C900B9
:100A20004708D3001421480803178D000313490811
:100A300003178F008D0A03198F0A03100313C60BC7
:100A4000CB2C0800CE010408CD004E10831B4E14A1
:100A5000470EF038C900C907E23ECA00323ECC005A
:100A600047080F39CA07CA07CC07E93ECB00CB07B6
:100A7000CB07460E0F39CB07CC07CB0DCC0DCC09DD
:100A8000CC0D46080F39CC07C90D0730C8000A3015
:100A9000CC07CB03031C482DCB07CA03031C4C2DEA
:100AA000CA07C903031C502DC907C803031C542DD2
:100AB00048308400831307304D054D1384074C30B4
:100AC000040203194D170008F700031D6F2D4D1B7D
:100AD0006F2D4D1A812DCD196F2D2030722DCD1512
:100AE0004D123030F707C7010408C6004710831BBA
:100AF00047147708D300142146088400831347184D
:0A0B00008317840A4D1F5F2D0800C3
:1010000003081F398300FF30AB002C10AC102C11EB
:10101000AD01AF01AE01B101B001B301B201CD30FC
:10102000B700CC30B6004C30B5007B30B400BB010B
:10103000BA01B901B801BF01BE01BD01BC01203038
:10104000C3004030C200C1017530C000C501C401F9
:1010500083161F149F141F159F1107309C008313C4
:101060001F109F141F119F111F1383121F179F170B
:1010700083169F1783121F1483160108C039023884
:1010800081000030F8000538831292006330831627
:10109000920083128B16C0308B048A11E5288A15C2
:1010A0000130C6000230C7008A1104218A155F3062
:1010B00003178D0000308F008A11031334218A1525
:1010C0000630C6000230C7008A1104218A1562303A
:1010D00003178D0000308F008A11031334218A1505
:1010E0000C30C6000230C7008A1104218A1548302E
:1010F000D3008A1114218A153A30D3008A111421A1
:101100008A15893084003708C9003608C8003508B8
:10111000C7003408C6000130CA008A114E228A1561
:101120008316061483120618E328AD012D08643CCB
:10113000031CA2288316061483120618A028AD01EA
:10114000AD0A96282C1CCC282B112B08831687005F
:10115000831207110130C6000230C7008A11042132
:101160008A15653003178D0000308F008A11031334
:1011700034218A150630C6000230C7008A110421C6
:101180008A15683003178D0000308F008A11031311
:1011900034218A152C10E3282B112B088316870085
:1011A000831207150130C6000230C7008A110421DE
:1011B0008A156B3003178D0000308F008A110313DE
:1011C00034218A152C148316861483128618452917
:1011D000AD012D08643C031CF52883168614831288
:1011E0008618F328AD01AD0AE9283708C90036088A
:1011F000C8003508C7003408C6006630CD00CC00F2
:101200001E30CB008230CA008A112E238A15031C9F
:10121000252983103708CD003608CC003508CB00CF
:101220003408CA00CD30D100CC30D0004C30CF00D3
:101230007B30CE008A116D238A157A08B7007908B1
:10124000B6007808B5007708B4000C30C60002304C
:10125000C7008A1104218A154830D3008A1114214D
:101260008A153A30D3008A1114218A1589308400F6
:101270003708C9003608C8003508C7003408C6005A
:101280000130CA008A114E228A1583160615831270
:101290000619A829AD012D08643C031C57298316A3
:1012A0000615831206195529AD01AD0A4B29CD301B
:1012B000C900CC30C8004C30C7007B30C6003708AE
:1012C000CD003608CC003508CB003408CA008A119E
:1012D0002E238A15031C882983143708CD0036086D
:1012E000CC003508CB003408CA00CD30D100CC305A
:1012F000D0004C30CF007B30CE008A116D238A1590
:101300007A08B7007908B6007808B5007708B40005
:101310000C30C6000230C7008A1104218A154830FB
:10132000D3008A1114218A153A30D3008A1114216E
:101330008A15893084003708C9003608C800350886
:10134000C7003408C6000130CA008A114E228A152F
:101350008316861583128619BC29AD012D08643CBD
:10136000031CBA298316861583128619B829AD0184
:10137000AD0AAE290430AC062C1C3D2A83103F0870
:10138000CD003E08CC003D08CB003C08CA00370821
:10139000D1003608D0003508CF003408CE008A11BD
:1013A0006D238A157A08C9007908C8007808C70033
:1013B0007708C6003B08CD003A08CC003908CB00BE
:1013C0003808CA008A112E238A15031CFE292B1106
:1013D0002B0883168700831207110630C6000230DF
:1013E000C7008A1104218A156E3003178D00003062
:1013F0008F008A11031334218A153D2A83143F0874
:10140000CD003E08CC003D08CB003C08CA003708A0
:10141000D1003608D0003508CF003408CE008A113C
:101420006D238A153B08C9003A08C8003908C7006F
:101430003808C6007A08CD007908CC007808CB00BF
:101440007708CA008A112E238A15031C3D2A2B1106
:101450002B0883168700831207150630C60002305A
:10146000C7008A1104218A15713003178D000030DE
:101470008F008A11031334218A15AC1C7F2B08308E
:10148000F8001F08C73978049F001A30F700F70BDF
:10149000472A00001F151F194B2A83161E088312A6
:1014A000B2001E08B3003308C7003208C6008A1114
:1014B000AE248A157A08D6007908D5007808D400B9
:1014C0007708D3004308DA004208D9004108D80061
:1014D0004008D7008A118A218A157A08C90079083C
:1014E000C8007808C7007708C6004908D600480831
:1014F000D5004708D4004608D3008530DA00EB3029
:10150000D9004730D8008430D7008A118A218A1543
:101510007A08C9007908C8007808C7007708C600AB
:1015200083104908CD004808CC004708CB00460886
:10153000CA00D101D0015C30CF008330CE008A11C7
:101540006D238A157A08BF007908BE007808BD00AF
:101550007708BC000030F8001F08C73978049F00E6
:101560001A30F700F70BB22A00001F151F19B62A10
:1015700083161E088312B0001E08B1003108C70090
:101580003008C6008A11AE248A152530D6000630F0
:10159000D5000130D4007C30D3007A08DA00790815
:1015A000D9007808D8007708D7008A118A218A15CF
:1015B0007A08C9007908C8007808C7007708C6000B
:1015C00083144908CD004808CC004708CB004608E2
:1015D000CA006630D100D0007630CF008230CE0015
:1015E0008A116D238A157A08BB007908BA00780839
:1015F000B9007708B8002C1D442B0130C600C70085
:101600008A1104218A15893084003B08C9003A08F0
:10161000C8003908C7003808C6000230CA008A115D
:101620004E228A15753003178D0000308F0003108D
:1016300004300313C6008A11CB248A150930C60072
:101640000130C7008A1104218A154430D3008A1161
:1016500014218A15893084003F08C9003E08C8005B
:101660003D08C7003C08C6000230CA008A114E225D
:101670008A152A30D3008A1114218A154330D300E9
:101680008A1114218A157E2B0130C600C7008A11E9
:1016900004218A155330D3008A1114218A1574301D
:1016A000D3008A1114218A153A30D3008A111421EB
:1016B0008A15093084003108C7003008C6008A1135
:1016C00022258A150930C6000130C7008A1104217D
:1016D0008A15783003178D0000308F000310043016
:1016E0000313C6008A11CB248A15093084003308FD
:1016F000C7003208C6008A1122258A15AC1090282E
:02170000630084
:02400E00723FFF
:00000001FF
;PIC16F877A
;CRC=411E  CREATED="14-jun-24 11:02"
