:1000000002308A00072A0000FF00030E8301A100CE
:100010000A08A0008A010408A2007708A300780853
:10002000A4007908A5007A08A600831383128B1E0A
:100030001B280B192C28220884002308F700240809
:10004000F8002508F9002608FA0020088A00210E89
:100050008300FF0E7F0E09008A110A122F28010863
:10006000063EC90049088100A80B3E28FA30A800C6
:100070002714A90B3E280430A900A7140B118A11DC
:100080000A121B284408003A03195328013A03199D
:100090005928033A03195F28013A03196628073AD9
:1000A00003196C287428831685018312450885007E
:1000B0007428831686018312450886007428F93057
:1000C00083168700831245088700742883168801E9
:1000D00083124508880074288316091089100911B5
:1000E000831245088900742808000D30F700F70BCB
:1000F00077288316091083120910831609118312B9
:1001000009110330C4003E08C5004220831689103F
:10011000831289140D30F700F70B8C288316891091
:100120008312891008003A308400831300080319F1
:10013000A7280130F800F701F70B9C28F80B9B2843
:100140004A30F700F70BA228A528800B9928080051
:1001500083168910831289103830BE0075200F3045
:10016000BA0093200130BE0075200A30BA009320F7
:100170000C30BE0075200A30BA0093200630BE0055
:1001800075200A30BA0093208A110A12572A8E303D
:10019000F7003D08F8003C08F900FA01F808031DD3
:1001A000DB287908F800F9010830F702F808031D88
:1001B000DB28F701E3280310F81BE228F90DF80DFE
:1001C000F703DB28F81308003C0803195429C4007E
:1001D000400803195429C4070318F5287F30C402C6
:1001E000031C542903195429F9288130C407031822
:1001F00054294408F700F801F901FA013D08C80044
:10020000C8173E08C7003F08C6001830C400C50123
:10021000461C22294308FA07031C1429F90A031D66
:100220001429F80A0319C5174208F907031C1B29EA
:10023000F80A0319C5174108BE00BE173E08F807A3
:100240000318C517C50DF80CF90CFA0CC80CC70C2F
:10025000C60C0310C40B07290130F70703185429F3
:10026000F81B3929C80DFA0DF90DF80DF70303191C
:100270005429C81F4A29FA0A031D4A29F90A031DED
:100280004A29F80A031D4A29F80CF90CFA0CF70A56
:10029000031954293D08C5004108C506C51F522948
:1002A000F8175829F8135829F701F801F901FA014C
:1002B00008008E30F7003A08F7023B08F9003C08C6
:1002C000F800F917F708031970290310F908031D3E
:1002D0006C29F80803197029F90CF80CF70B65293B
:1002E000BB1F7729F809F909F80A0319F90A080068
:1002F0003B0B7B297E294030BC007F29BC010130AB
:100300003A02BC073C088038BD00BE0075200800DA
:10031000C2010408C1004210831B42143B0EF03896
:10032000BD00BD07E23EBE00323EC0003B080F39B3
:10033000BE07BE07C007E93EBF00BF07BF073A0EB2
:100340000F39BF07C007BF0DC00DC009C00D3A0867
:100350000F39C007BD0D0730BC000A30C007BF030E
:10036000031CAE29BF07BE03031CB229BE07BD0391
:10037000031CB629BD07BC03031CBA293C3084000A
:1003800083130730410541138407403004020319E9
:1003900041170008F700031DD529411BD529411A33
:1003A000032AC119D5292030D829C115411230306E
:1003B000F707BB010408BA003B10831B3B14770806
:1003C000C3000D30F700F70BE329831609108312E1
:1003D000091483160911831209110330C40043085C
:1003E000C500422083168910831289140D30F7004E
:1003F000F70BF82983168910831289103A088400B4
:1004000083133B188317840A411FC529080003087A
:100410001F398300FA30A8000430A9000D30B50060
:100420003230B4004830B3007E30B200B901B801B8
:10043000B7018230B60083161F149F141F159F1139
:1004400007309C0083131F109F141F119F111F134F
:1004500083121F179F1783169F1783121F1483166B
:100460000108C039013881008730831290000030C4
:10047000F80004389200C73083169200F9308700E4
:10048000831207110C309700F9308316870083120E
:1004900087100C309D0095011708CF3997009B01FC
:1004A0001D08CF399D008B16C0308B04A828271C4F
:1004B000242B27100030F8001F08C73978049F004C
:1004C0000D30F700F70B622A1F151F19652A8316D6
:1004D0001E088312AA001E08AB000830F8001F088F
:1004E000C73978049F000D30F700F70B752A1F15E8
:1004F0001F19782A1E08FA0083161E088312BA00F4
:100500001E08BB00BD003A08BC00C7207A08BF0027
:100510007908BE007808BD007708BC003508C30024
:100520003408C2003308C1003208C000E4207A0851
:10053000BD007908BC007808BB007708BA005921D3
:100540007908AD007808AC001030F8001F08C739F2
:1005500078049F000D30F700F70BAC2A1F151F1908
:10056000AF2A1E08FA0083161E088312BA001E085E
:10057000BB00BD003A08BC00C7207A08BF0079085C
:10058000BE007808BD007708BC003508C3003408F9
:10059000C2003308C1003208C000E4207A08BD0060
:1005A0007908BC007808BB007708BA00592179089F
:1005B000AF007808AE000130BA00BB0078210930E6
:1005C00084002B08BB002A08BA0088210730BA0033
:1005D0000130BB007821093084002D08BB002C08B5
:1005E000BA0088210D30BA000130BB0078210930F3
:1005F00084002F08BB002E08BA0088212D08F900BE
:100600002C08F800F90CF80CF90CF80CF90C780827
:100610009500F90C790C3039F7001708CF397704B9
:1006200097002F08F9002E08F800F90CF80CF90CC7
:10063000F80CF90C78089B00F90C790C3039F700AC
:100640001D08CF3977049D00A71C652BA7100F0844
:10065000FA000E08F7000F087A02031D272B77080F
:10066000BA007A08BB003B08BD003A08BC00C720AE
:100670007A08BF007908BE007808BD007708BC0082
:100680003908C3003808C2003708C1003608C00066
:10069000E4207A08BD007908BC007808BB00770820
:1006A000BA0059217908B1007808B0008E018F0195
:1006B0008E010130BA000230BB007821083084007E
:0E06C0003108BB003008BA008821572A6300B9
:02400E00713F00
:00000001FF
;PIC16F877A
;CRC=D258  CREATED="24-mai-24 11:51"
