:1000000001308A0051290000FF00030E8301A10086
:100010000A08A0008A010408A2007708A300780853
:10002000A4007908A5007A08A600831383128C30F7
:100030008400801E1D288C1A32288B1E21280B1943
:100040003528220884002308F7002408F800250832
:10005000F9002608FA0020088A00210E8300FF0E0E
:100060007F0E09008A110A1238288A110A1285287F
:100070008C1E38281A08AB002B08493C031D442865
:10008000AA012A08A90081282B08463C031D4A28FA
:10009000281481282B083B3C031D5128A90AAA01DA
:1000A00081282908BF000530C000F701F8013F088A
:1000B00003104018F707F70CF80CC018F707F70CF7
:1000C000F80C4019F707F70CF80CC019F707F70CF4
:1000D000F80C401AF707F70CF80CC01AF707F70CE2
:1000E000F80C401BF707F70CF80CC01BF707F70CD0
:1000F000F80C2A0878072C3E840083132B08800014
:10010000AA0A8C128A110A1221280B118A110A12CA
:1001100021283D08003A03199A28013A0319A0281A
:10012000033A0319A628013A0319AE28073A03191E
:10013000B428BC288316850183123E088500BC289C
:100140008316860183123E088600BC280030A70073
:100150008316870183123E088700BC288316880116
:1001600083123E088800BC288316091089100911E3
:1001700083123E088900BC2808000D30F700F70BF9
:10018000BF288316091083120910831609118312E0
:1001900009110330BD003C08BE0089208316891078
:1001A000831289140D30F700F70BD42883168910B9
:1001B0008312891008003830840083130008031963
:1001C000EF280130F800F701F70BE428F80BE328DB
:1001D0004A30F700F70BEA28ED28800BE1280800E9
:1001E00083168910831289103830BC00BD200F306F
:1001F000B800DB200130BC00BD200A30B800DB2095
:100200000C30BC00BD200A30B800DB200630BC003A
:10021000BD200A30B800DB208A110A128E29390B62
:10022000122915294030BA001629BA0101303802C6
:10023000BA073A088038BB00BC00BD20080080081F
:1002400003195029B9010408B8003910831B391467
:100250000008BA000D30F700F70B2C29831609109F
:100260008312091483160911831209110330BD008A
:100270003A08BE00892083168910831289140D3034
:10028000F700F70B4129831689108312891038086B
:100290008400831339188317840A0319850A1F29D8
:1002A000080003081F398300193083169900A6300F
:1002B0009800903083129800FF30A7002810A90101
:1002C000AA01B701B60183161F149F141F159F11B1
:1002D00007309C0083130108C039033881000030C7
:1002E000F800043883129200C730831692008312FC
:1002F0002711270883168700831207110C309700F7
:1003000095011708CF39970083168C1683128B1628
:10031000C0308B04B5013508B000F028281CA22994
:1003200028100130B800B9000F212C30840083134D
:100330001F210830B8000130B9000F21313084008E
:0803400083131F218E296300C5
:02400E00713F00
:00000001FF
;PIC16F877A
;CRC=60BF  CREATED="05-jun-24 14:14"
