:1000000000308A00B8280000FF00030E8301A10021
:100010000A08A0008A010408A2007708A300780853
:10002000A4007908A5007A08A600831383128B1E0A
:100030001B280B192C28220884002308F700240809
:10004000F8002508F9002608FA0020088A00210E89
:100050008300FF0E7F0E09008A110A122F28A90AB9
:100060002908643C031D5328271C5328AD0A2D087A
:100070000A3C031D3D28AD01AC0A2C080A3C031DB7
:100080004328AC01AB0A2B080A3C031D4928AB01ED
:10009000AA0A2A080A3C031D5228AA012A08AB0012
:1000A000AC00AD00A901A80F69288316861383123E
:1000B000861383160612831206162E302D0784002F
:1000C00083130008B9008316880183123908880059
:1000D000B428280B8328831606128312061283166F
:1000E0008612831286162E302C0784008313000894
:1000F000B900831688018312390888008316881393
:1001000083128817B4282808023C031D9B288316F5
:1001100086128312861283160613831206172E3058
:100120002B07840083130008B9008316880183120B
:1001300039088800B4282808033C031DB428831616
:1001400006138312061383168613831286172E3026
:100150002A07840083130008B900831688018312DC
:1001600039088800FF30A8000B118A110A121B28D9
:1001700003081F3983002710FF30A800A901AA0136
:10018000AB01AC01AD0183161F149F141F159F1105
:1001900007309C0083133F308312AE000630AF005F
:1001A0005B30B0004F30B1006630B2006D30B3004C
:1001B0007D30B4000730B5007F30B6006F30B70037
:1001C00083160108C0390238810083128B16C030B3
:1001D0008B048316061483120618F02827140729A7
:1001E0008316861483128618FA28A9012710291865
:1001F00027140729831606158312061907292718BD
:100200000729AA012A08AB00AC00AD00A901E92822
:02021000630089
:02400E00723FFF
:00000001FF
;PIC16F877A
;CRC=5DD8  CREATED="05-jun-24 14:21"
