:1000000001308A008B290000FF00030E8301A1004C
:100010000A08A0008A010408A2007708A300780853
:10002000A4007908A5007A08A600831383128B1E0A
:100030001B280B192C28220884002308F700240809
:10004000F8002508F9002608FA0020088A00210E89
:100050008300FF0E7F0E09008A110A128E28F80114
:10006000F901F701FA014008031D39283F08031977
:1000700053281030C1000310BD0DBE0DF70DFA0D51
:1000800040087A02031D46283F087702031C4F28C8
:100090003F08F702031CFA034008FA020314F80DA4
:1000A000F90DC10B3B2808001030BF00F701FA0121
:1000B000BC0CBB0C031C62283D08F7070318FA0AA6
:1000C0003E08FA07FA0CF70CF90CF80CBF0B58288D
:1000D0000800F701F8013D0803103E18F707F70C78
:1000E000F80CBE18F707F70CF80C3E19F707F70CD9
:1000F000F80CBE19F707F70CF80C3E1AF707F70CC7
:10010000F80CBE1AF707F70CF80C3E1BF707F70CB4
:10011000F80CBE1BF707F70CF80C0800AC0A2C080B
:10012000643C031DA428B70A0319B80A3808263C02
:100130000318A328FF3A031DA12837080F3C031812
:10014000A328B801B701AC013808BA003708B900D4
:100150003A08BE003908BD000330C000E830BF00D7
:100160002F207808A700BC012708BB000330BE0081
:10017000E830BD0054207908FA0078083902BB0045
:100180003A08BC007908031C790FBC023C08BE0089
:100190003B08BD00C0016430BF002F207808A800D4
:1001A000BC012708BB000330BE00E830BD0054206E
:1001B0007908FA0078083902BB003A08BC007908CF
:1001C000031C790FBC022808BD006430BE00692002
:1001D0007808BB020030031C0130BC023C08BE00A2
:1001E0003B08BD00C0010A30BF002F207808A900DD
:1001F000BC012708BB000330BE00E830BD0054201E
:100200007908FA0078083902BB003A08BC0079087E
:10021000031C790FBC022808BD006430BE006920B1
:100220007808BB020030031C0130BC022908BD0065
:100230000A30BE00692078083B02F7003C08FA004B
:100240000030031C0130FA027708AA00AB0F3C29EA
:1002500083168613831286138316061283120616DC
:100260002D302A07840083130008B9008316880103
:1002700083123908880087292B0B5629831606120A
:100280008312061283168612831286162D302907D2
:10029000840083130008B90083168801831239088B
:1002A0008800831688138312881787292B08023C3D
:1002B000031D6E2983168612831286128316061377
:1002C000831206172D302807840083130008B90015
:1002D0008316880183123908880087292B08033C7C
:1002E000031D8729831606138312061383168613AC
:1002F000831286172D302707840083130008B90066
:1003000083168801831239088800FF30AB000B1177
:100310008A110A121B2803081F398300A701A801AC
:10032000A901AA01AB01AC012630B800AC30B7007E
:1003300083161F149F141F159F1107309C008313F1
:100340003F308312AD000630AE005B30AF004F305F
:10035000B0006630B1006D30B2007D30B3000730C0
:10036000B4007F30B5006F30B60083160108C03985
:100370000238810083128B16C0308B04831606145A
:100380008312061CCD29831686148312861CCD2960
:0E0390008316061583120619CD29BE296300B7
:02400E00723FFF
:00000001FF
;PIC16F877A
;CRC=0179  CREATED="04-jun-24 15:46"
