:1000000004308A00BE2C0000FF00030E8301A10013
:100010000A08A0008A010408A2007708A300780853
:10002000A4007908A5007A08A60003170D08031399
:10003000A70003170F080313A80003170C080313E6
:10004000A90003170E080313AA00831383128B1E43
:100050002B280B194C28220884002308F7002408B9
:10006000F8002508F9002608FA00270803178D0074
:100070000313280803178F000313290803178C00A4
:1000800003132A0803178E00031320088A00210E89
:100090008300FF0E7F0E09008A110A124F28AE0A54
:1000A0002E08633C03185628AC14AE01B80A031995
:1000B000B90A37083902031C6628031D632836086D
:1000C0003802031C6628B901B8012C140B118A11DF
:1000D0000A122B28D334733A3A104F234600D037F4
:1000E000741DA012301ACC2A0000D334733A3A108F
:1000F0004F272100D334733A3A104F234600D037AC
:10010000741DA012301ACC2A000083165108003A40
:10011000831203199828013A03199E28033A0319F8
:10012000A428013A0319AC28073A0319B228BA28BF
:1001300083168501520883128500BA28831686012A
:10014000520883128600BA280030AB00831687015C
:10015000520883128700BA28831688015208831236
:100160008800BA28831609108910091152088312D1
:100170008900BA2808001A30F700F70BBD280000E4
:1001800083160910831209108316091183120911AD
:1001900003308316D1004B08D200831285208316CA
:1001A0008910831289141A30F700F70BD528000044
:1001B00083168910831289100800C73084008313C6
:1001C00000080319F0280230F800F701F70BE628C1
:1001D000F80BE5289730F700F70BEC28800BE328A5
:1001E0000800831689108312891038308316CB00DB
:1001F0008312BB200F308316C7008312DD2001302D
:100200008316CB008312BB200A308316C7008312EB
:10021000DD200C308316CB008312BB200A308316FE
:10022000C7008312DD2006308316CB008312BB206B
:100230000A308316C7008312DD208A110A12AE2D00
:100240008316480B242927294030C9002829C901D1
:1002500001304702C90749088038CA00CB00831221
:10026000BB2008001A30F700F70B34290000831672
:10027000091083120914831609118312091103301E
:100280008316D1005008D20083128520831689106E
:10029000831289141A30F700F70B4C2900008316DB
:1002A00089108312891008000B088316C700831277
:1002B0008B13831603178C170C1400000000031314
:1002C000C71F652983128B178316831203170C0827
:1002D0007F390319C62983160313C7008312031736
:1002E0000D0883160313C800831203170F08831623
:1002F0000313C9004708D00083123221831648082F
:10030000831203178D008316031349088312031702
:100310008F0003130B088316CA0083128B138316F6
:1003200003178C170C14000000000313CA1F9B292D
:1003300083128B178316831203170C0D0E0D7F3952
:100340000319C62983160313C700831203170D0868
:1003500083160313C800831203170F0883160313B1
:10036000C9004708D000831232218316480883123F
:1003700003178D00831603134908831203178F0098
:100380008D0A03198F0A0313542903170313080056
:100390008316CF010408CE004F10831B4F14480E64
:1003A000F038CA00CA07E23ECB00323ECD00480812
:1003B0000F39CB07CB07CD07E93ECC00CC07CC07E4
:1003C000470E0F39CC07CD07CC0DCD0DCD09CD0D86
:1003D00047080F39CD07CA0D0730C9000A30CD07CD
:1003E000CC03031CEF29CC07CB03031CF329CB0759
:1003F000CA03031CF729CA07C903031CFB29C93018
:100400008400831307304E054E138407CD30040259
:1004100003194E170008F700031D162A4E1B162A53
:100420004E1A2A2ACE19162A2030192ACE154E1213
:100430003030F707C8010408C7004810831B481470
:100440007708D00083123221831647088400831373
:1004500048188317840A4E1F062A831208008E301C
:10046000F70083164808F8004708F900FA01F80871
:10047000031D442A7908F800F9010830F702F8084A
:10048000031D442AF7014C2A0310F81B4B2AF90DCF
:10049000F80DF703442AF8138312080083164B085B
:1004A0000319BF2AD3004F080319BF2AD307031823
:1004B000602A7F30D302031CBF2A0319BF2A642A93
:1004C0008130D3070318BF2A5308F700F801F90158
:1004D000FA014C08D700D7174D08D6004E08D500B2
:1004E0001830D300D401551C8D2A5208FA07031C7A
:1004F0007F2AF90A031D7F2AF80A0319D417510825
:10050000F907031C862AF80A0319D4175008CD00EE
:10051000CD174D08F8070318D417D40DF80CF90CB3
:10052000FA0CD70CD60CD50C0310D30B722A013061
:10053000F7070318BF2AF81BA42AD70DFA0DF90DE7
:10054000F80DF7030319BF2AD71FB52AFA0A031DAE
:10055000B52AF90A031DB52AF80A031DB52AF80CB5
:10056000F90CFA0CF70A0319BF2A4C08D4005008FA
:10057000D406D41FBD2AF817C32AF813C32AF701DB
:10058000F801F901FA01831208008E30F700831692
:100590004708F7024808F9004908F800F917F70872
:1005A0000319DD2A0310F908031DD92AF8080319D5
:1005B000DD2AF90CF80CF70BD22AC81FE42AF80937
:1005C000F909F80A0319F90A831208000B088316BF
:1005D000C80083128B13831603178C170C140000AA
:1005E00000000313C81FF72A83128B178316031802
:1005F000302B831203170C087F3983160313C800AE
:10060000831203170D0883160313C90083120317FF
:100610000F0883160313CA004808D0008312322142
:1006200083164908831203178D00831603134A08A3
:10063000831203178F0003130B088316CB0083125A
:100640008B13831603178C170C1400000000031380
:10065000CB1F2D2B83128B178316C70B302B5E2BD2
:10066000831203170C0D0E0D7F3983160313C80078
:10067000831203170D0883160313C900831203178F
:100680000F0883160313CA004808D00083123221D2
:1006900083164908831203178D00831603134A0833
:1006A000831203178F008D0A03198F0A0310831614
:1006B0000313C70B5C2B5E2B8312E62A8312080000
:1006C000831647080319262CD3004B080319262C40
:1006D000D302031C702B7F30D3070318262C762BF4
:1006E0008130D302031C262C0319262C5308F70053
:1006F000F801F901FA01D2014808D100D1174908DF
:10070000D0004A08CF001930D3004E08CF0203189A
:10071000992B0130D0020318992BD1020318992B81
:10072000D2020318992BD20AD10AD00A4E08CF0759
:10073000CB2B4D08D0020318B42B0130D102031883
:10074000B42BD2020318B42BD20AD10A4D08D00719
:100750004E08CF07031CCB2BD00A031DCB2BD10A8D
:10076000031DCB2BD20ACB2B4C088038D1020318A7
:10077000CA2B0130D2020318CA2BD20A4C08803887
:10078000D1074D08D007031CA82BD10A031DA82BA5
:10079000D20AA82B7A14D30BCE2BD92B0310CF0D52
:1007A000D00DD10DD20D0310FA0DF90DF80DD40DA9
:1007B000852B541CE12B0310F80CF90CFA0CD40C0B
:1007C000E42BF7030319262CD41B0D2C0310CF0D9B
:1007D000D00DD10DD20D4E08CF020318F92B0130E8
:1007E000D0020318F92BD1020318F92BD202031CF3
:1007F0001C2C4D08D0020318042C0130D102031820
:10080000042CD202031C1C2C4C088038D102031883
:100810000D2C0130D202031C1C2CFA0A031D1C2CC7
:10082000F90A031D1C2CF80A031D1C2CF70A0319D6
:10083000262CF80CF90CFA0C4808D3004C08D30607
:10084000D31F242CF8172A2CF8132A2CF701F801AF
:10085000F901FA0183128A110A12F72E8316C908C8
:10086000031D402C83122F080E3C031CAF013E30A9
:100870002F07840083130008F800B92CB92C8316C5
:10088000490B502C83122F08083C031CAF014E303B
:100890002F07840083130008F800B92CB92C8316A5
:1008A0004908023C031D622C83122F08073C031CDD
:1008B000AF0157302F07840083130008F800B92CCC
:1008C000B92C83164908033C031D742C83122F088E
:1008D000083C031CAF015F302F078400831300081E
:1008E000F800B92CB92C83164908043C031D862C4A
:1008F00083122F08083C031CAF0168302F078400C7
:1009000083130008F800B92CB92C83164908053C5C
:10091000031D982C83122F080E3C031CAF01A0303E
:100920002F07840083130008F800B92CB92C831614
:100930004908063C031DAA2C83122F080E3C031CF9
:10094000AF01AF302F07840083130008F800B92CE3
:10095000B92C83164908073C031DBA2C83122F08B3
:10096000083C031CAF01BE302F078400831300082E
:10097000F800831683128A110A12E62F03081F3922
:100980008300FF30AB002C10AC102C15AD01AE0174
:10099000AF01B101B001B301B201B5010130B40042
:1009A000B701B601B901B8010830BD002030BC0064
:1009B000BB017530BA00F201F10183161F149F14B8
:1009C0001F159F1107309C00831301308312BE0056
:1009D0000330BF000730C0000F30C1001F30C2001D
:1009E0003F30C3007F30C400FF30C500FE30C6007A
:1009F000FC30C700F830C800F030C900E030CA0051
:100A0000C030CB008030CC00CD010130CE000230B0
:100A1000CF000430D0000830D1001030D200203098
:100A2000D3004030D4008030D500D6018130D700CB
:100A30004230D8002430D9001830DA00DB002430EE
:100A4000DC004230DD00DE018030DF004030E000BD
:100A50002030E1001030E2000830E3000430E40010
:100A60000230E5000130E600E7018130E8000330A4
:100A7000E9000630EA000C30EB001830EC003030B2
:100A8000ED006030EE00C030EF00F0010130831661
:100A9000A0000330A1000730A2000F30A3001F30D8
:100AA000A4003F30A5007F30A600FF30A7007F30B4
:100AB000A8003F30A9001F30AA000F30AB0007305C
:100AC000AC000330AD00AE018030AF00C030B000EC
:100AD000E030B100F030B200F830B300FC30B400C8
:100AE000FE30B500FF30B600FE30B700FC30B80075
:100AF000F830B900F030BA00E030BB00C030BC00C4
:100B00008030BD001830BE003C30BF007E30C000D9
:100B1000FF30C1007E30C2003C30C3001830C4003A
:100B2000C501C6011F109F141F159F151F138312A7
:100B30001F179F1783169F1783121F148316010810
:100B4000C0390238810083128B16C0308B0400300C
:100B5000F8001F08C73978049F00F1280130831678
:100B6000C700C800831220216A3003178D000030AF
:100B70008F00031354210B308316C7000130C800C7
:100B8000831220214D308316D000831232213A3057
:100B90008316D0008312322120308316D0008312B6
:100BA00032210B30840035088316C80083123408C4
:100BB0008316C7008312C8211F151F19DD2D831648
:100BC0001E088312B0001E08B10031088316C80049
:100BD000831230088316C70083122F227A088316E7
:100BE000CE007908CD007808CC007708CB008312BE
:100BF0003D088316D20083123C088316D10083126D
:100C00003B088316D00083123A088316CF00831264
:100C10004E227A088316CA007908C9007808C800ED
:100C20007708C7004A08CE004908CD004808CC0024
:100C30004708CB00D201D1011030D0008230CF0064
:100C400083124E227A088316CA007908C9007808F0
:100C5000C8007708C7008312C52279088316C80028
:100C60007808C700013047078312B200831648088E
:100C70008312B3000318B30A01308316C700023091
:100C8000C8008312202146308316D00083123221FF
:100C90003A308316D0008312322120308316D000E0
:100CA000831232210B30840033088316C80083126C
:100CB00032088316C7008312C82108308316C70084
:100CC0000230C800831220216F3003178D000030DE
:100CD0008F000310053083160313C7008312E6222A
:100CE0000930840031088316C80083123008831647
:100CF000C7008312C821AC1C9C2FAC101F151F19F4
:100D00007F2E83161E088312B0001E08B100310822
:100D10008316C800831230088316C70083122F225F
:100D20007A088316CE007908CD007808CC007708C1
:100D3000CB0083123D088316D20083123C08831631
:100D4000D10083123B088316D00083123A08831621
:100D5000CF0083124E227A088316CA007908C90090
:100D60007808C8007708C7004A08CE004908CD00B7
:100D70004808CC004708CB00D201D1011030D00088
:100D80008230CF0083124E227A088316CA00790877
:100D9000C9007808C8007708C7008312C5227908FF
:100DA0008316C8007808C700013047078312B200D5
:100DB000831648088312B3000318B30A3308831656
:100DC000C800831232088316C70083122F228316AD
:100DD000CA01C901C8017F30C7007A08CE0079086E
:100DE000CD007808CC007708CB008312602B7A08FE
:100DF0008316CA007908C9007808C8007708C700B8
:100E00004A08CE004908CD004808CC004708CB006E
:100E1000D201D1017A30D0008830CF0083124E2227
:100E20007A088316CA007908C9007808C8007708CC
:100E3000C7008312C5227908B7007808B6002C1DB8
:100E40002F2F01308316C700C80083122021753070
:100E500003178D0000308F00031354213C2F013005
:100E60008316C700C800831220217A3003178D0033
:100E700000308F00031354210B308316C70001305C
:100E8000C800831220214D308316D00083123221F6
:100E90003A308316D0008312322120308316D000DE
:100EA000831232210B30840035088316C800831268
:100EB00034088316C7008312C82101308316C70087
:100EC0000230C8008312202146308316D0008312DE
:100ED00032213A308316D00083123221203083161B
:100EE000D000831232210B30840033088316C800EF
:100EF000831232088316C7008312C8210830831674
:100F0000C7000230C800831220217F3003178D00F4
:100F100000308F000310053083160313C7008312BF
:100F2000E6220930840031088316C8008312300895
:100F30008316C7008312C82183168514831285186F
:100F4000B22FAD012D08313C031CAD2F8316851443
:100F50008312851CAD01AD0AA22F2C19B12F2C15BF
:100F6000B22F2C118316051583120519D02FAD0150
:100F70002D08313C031CC32F831605158312051D54
:100F8000AD01AD0AB82FB40A0319B50AB508031D9F
:100F9000CD2F3408083C0318D02FB5010130B40020
:100FA0002C1DED2F2C1CED2F2C10AF0A013034021C
:100FB0008316C700831235088316C8000030031C4F
:100FC0000130C8024708C90083122E2C7808831606
:0E0FD000C70086014708831286007B2E63004F
:02400E00723FFF
:00000001FF
;PIC16F877A
;CRC=0114  CREATED="03-jul-24 12:04"
