:1000000003308A00162B0000FF00030E8301A100BD
:100010000A08A0008A010408A2007708A300780853
:10002000A4007908A5007A08A600831383128B1E0A
:100030001B280B192C28220884002308F700240809
:10004000F8002508F9002608FA0020088A00210E89
:100050008300FF0E7F0E09008A110A122F28010863
:10006000063ED30053088100A80B3928FA30A800B7
:1000700027140B118A110A121B284708003A03198A
:100080004E28013A03195428033A03195A28013A11
:1000900003196128073A031967286F288316850119
:1000A0008312480885006F2883168601831248084A
:1000B00086006F28FB30831687008312480887006C
:1000C0006F28831688018312480888006F288316DA
:1000D0000910891009118312480889006F28080047
:1000E0000D30F700F70B72288316091083120910E0
:1000F00083160911831209110330C7003D08C80097
:100100003D2083168910831289140D30F700F70BF8
:1001100087288316891083128910080039308400DB
:10012000831300080319A2280130F800F701F70B28
:100130009728F80B96284A30F700F70B9D28A0283F
:10014000800B942808008316891083128910383098
:10015000BD0070200F30B9008E200130BD0070202E
:100160000A30B9008E200C30BD0070200A30B90072
:100170008E200630BD0070200A30B9008E208A1112
:100180000A123E2B0D30F700F70BC4288316091016
:100190008312091483160911831209110330C70051
:1001A0004608C8003D2083168910831289140D303B
:1001B000F700F70BD92883168910831289100800DD
:1001C0003A0BE328E6284030BB00E728BB010130AA
:1001D0003902BB073B088038BC00BD007020080016
:1001E0008E30F7003A08F8003908F900FA01F808EB
:1001F000031D04297908F800F9010830F702F8080E
:10020000031D0429F7010C290310F81B0B29F90D14
:10021000F80DF7030429F8138A110A128B2B4608EC
:1002200003197F29CE004A0803197F29CE07031836
:1002300020297F30CE02031C7F2903197F2924291E
:100240008130CE0703187F294E08F700F801F90125
:10025000FA014708D200D2174808D1004908D00057
:100260001830CE00CF01501C4D294D08FA07031C51
:100270003F29F90A031D3F29F80A0319CF174C0833
:10028000F907031C4629F80A0319CF174B08C800C1
:10029000C8174808F8070318CF17CF0DF80CF90C4A
:1002A000FA0CD20CD10CD00C0310CE0B3229013039
:1002B000F70703187F29F81B6429D20DFA0DF90DF1
:1002C000F80DF70303197F29D21F7529FA0A031DB8
:1002D0007529F90A031D7529F80A031D7529F80CFB
:1002E000F90CFA0CF70A03197F294708CF004B08CD
:1002F000CF06CF1F7D29F8178329F8138329F7012B
:10030000F801F901FA010800C1010408C000411018
:10031000831B41143A0EF038BC00BC07E23EBD001E
:10032000323EBF003A080F39BD07BD07BF07E93E9F
:10033000BE00BE07BE07390E0F39BE07BF07BE0D90
:10034000BF0DBF09BF0D39080F39BF07BC0D0730FE
:10035000BB000A30BF07BE03031CAA29BE07BD03AA
:10036000031CAE29BD07BC03031CB229BC07BB0399
:10037000031CB6293B30840083130730400540132B
:1003800084073F300402031940170008F700031DDB
:10039000D129401BD129401AE329C019D129203085
:1003A000D429C01540123030F707BA010408B9004B
:1003B0003A10831B3A147708C600C220390884001B
:1003C00083133A188317840A401FC1290800831831
:1003D000EC294E3084008313F701F801F901FA018A
:1003E000CE01CF01D001D1014D084C044B044A0489
:1003F00003192A2A2030D2000310C60DC70DC80DDC
:10040000C90DCE0DCF0DD00DD10D4D085102031DDC
:10041000132A4C085002031D132A4B084F02031DD8
:10042000132A4A084E02031C242A4A08CE024B080B
:10043000031C4B0FCF024C08031C4C0FD0024D087D
:10044000031C4D0FD1020314F70DF80DF90DFA0D31
:10045000D20BFC294E088000840A4F088000840AD1
:1004600050088000840A5108800008000408BE007B
:100470003D08C0000319552A3C08C9003B08C800C4
:100480003A08C7003908C600CD01CC012030CB00A6
:100490008230CA000F217A08BC007908BB007808B6
:1004A000BA007708B900C00B3C2A3C08C9003B08D9
:1004B000C8003A08C7003908C6004608B63CC6005E
:1004C000FA014708CA00C7170310C70CC80CC90CAB
:1004D000FA0CF90CF80CF70CC60B642ACA1F7B2A1D
:1004E000F709F809F909FA09F70A0319F80A0319CB
:1004F000F90A0319FA0A7A08BC007908BB007808DF
:10050000BA007708B900BC1F922ABE03BE16B9090B
:10051000BA09BB09BC09B90A0319BA0A0319BB0A0B
:100520000319BC0A3B30C5009A30C400CA30C3006E
:10053000C2010A30C0003D080319BE0A83143930D5
:10054000840083133C08C9003B08C8003A08C70070
:100550003908C6004508CD004408CC004308CB004C
:100560004208CA00E7217808F708031DCA2A3D0A95
:1005700040020319CA2A3E080319CC2A0F39400247
:100580000319C42A0318FC2ABE1BFC2A3E1BCC2AD2
:100590002030F82A2030BE05BE1EDA2ABE123D08E1
:1005A000031DBE037708BE002D30C600C2203E08E2
:1005B000F700BE013D084002031DE82A7708BE008F
:1005C0002E30C600C2203E08F7002030BE050030A5
:1005D0003030BE1EF82ABE123D08031DBE03770848
:1005E000BE002D30C600C2203E08F700BE013030EC
:1005F000F7077708C600C22083104508C9004408E1
:10060000C8004308C7004208C600CD01CC01CB0199
:100610000A30CA00E7217A08C5007908C4007808C2
:10062000C3007708C200C00B9E2A080003081F39C8
:1006300083002710FA30A8000830B4002030B3003F
:10064000B2017530B10083161F149F141F159F113E
:1006500007309C0083131F109F101F159F111F133D
:1006600083121F179F1783169F1783121F14831659
:100670000108C039033881008312A3284130C60025
:10068000C2203030C600C2203D30C600C22001303A
:10069000B9000230BA00E0204130C600C22031303B
:1006A000C600C2203D30C600C2208B16C0308B046D
:1006B000FB308316870083120711271C062C271096
:1006C0000030F8001F08C73978049F000D30F7008C
:1006D000F70B682B1F151F196B2B83161E0883122F
:1006E000AB001E08AC000830F8001F08C7397804BA
:1006F0009F000D30F700F70B7B2B1F151F197E2B6A
:1007000083161E088312A9001E08AA002A08BA0030
:100710002908B900F0287A08C9007908C8007808C3
:10072000C7007708C6003408CD003308CC00320873
:10073000CB003108CA000F217A08BC007908BB0041
:100740007808BA007708B9007A08C9007908C800A3
:100750007808C7007708C600CD01CC012030CB0057
:100760008130CA000F217A08B0007908AF007808FC
:10077000AE007708AD000430B9000130BA00E020C7
:10078000093084002C08BA002B08B9008421B80174
:10079000B7013030B6008430B5000A30B9000130FE
:1007A000BA00E020033084003808BC003708BB00E2
:1007B0003608BA003508B9000230BD003622B03024
:1007C000C600C2204330C600C2200430B900023047
:1007D000BA00E020093084002A08BA002908B900CC
:1007E00084210A30B9000230BA00E02003308400CE
:1007F0003008BC002F08BB002E08BA002D08B90035
:100800000230BD0036225630C600C22083160614C0
:1008100083120618102CFB308316870083120715ED
:1008200083168614831286181A2CFB3083168700D1
:08083000831207115D2B630028
:02400E00713F00
:00000001FF
;PIC16F877A
;CRC=BFB8  CREATED="22-mai-24 11:13"
