:1000000001308A00EB290000FF00030E8301A100EC
:100010000A08A0008A010408A2007708A300780853
:10002000A4007908A5007A08A60003170D08031399
:10003000A70003170F080313A80003170C080313E6
:10004000A90003170E080313AA00831383128B1E43
:100050002B280B194C28220884002308F7002408B9
:10006000F8002508F9002608FA00270803178D0074
:100070000313280803178F000313290803178C00A4
:1000800003132A0803178E00031320088A00210E89
:100090008300FF0E7F0E09008A110A124F28AD0A55
:1000A0002D08FA3C031D5628AD01AC140B118A1122
:1000B0000A122B28D3244F230000482A4F23000183
:1000C00043264F230001D3244F270001482A4F27FE
:1000D000000143264F230001482A4F2300014326F5
:1000E0004F270001D3244F230001482A4F2300014A
:1000F00043264F2300004008003A03198C28013A98
:1001000003199228033A03199828013A0319A028E1
:10011000073A0319A628AE288316850183124108E1
:100120008500AE2883168601831241088600AE281A
:100130000030AB0083168701831241088700AE2888
:1001400083168801831241088800AE28831609109F
:1001500089100911831241088900AE2808001A305D
:10016000F700F70BB128000083160910831209105D
:1001700083160911831209110330C0003A08C10027
:100180007B2083168910831289141A30F700F70B2D
:10019000C7280000831689108312891008003630A2
:1001A0008400831300080319E2280230F800F701E5
:1001B000F70BD828F80BD7289730F700F70BDE2875
:1001C000800BD528080083168910831289103830D7
:1001D000BA00AF200F30B600CF200130BA00AF20F8
:1001E0000A30B600CF200C30BA00AF200A30B6007B
:1001F000CF200630BA00AF200A30B600CF208A11D7
:100200000A121C2A370B052908294030B800092991
:10021000B80101303602B80738088038B900BA0092
:10022000AF2008001A30F700F70B142900008316DE
:10023000091083120914831609118312091103305E
:10024000C0003F08C1007B208316891083128914E7
:100250001A30F700F70B2A29000083168910831241
:1002600089100800BE010408BD003E10831B3E1427
:10027000370EF038B900B907E23EBA00323EBC0092
:1002800037080F39BA07BA07BC07E93EBB00BB07FE
:10029000BB07360E0F39BB07BC07BB0DBC0DBC0935
:1002A000BC0D36080F39BC07B90D0730B8000A304D
:1002B000BC07BB03031C5829BB07BA03031C5C29FA
:1002C000BA07B903031C6029B907B803031C6429E2
:1002D00038308400831307303D053D1384073C30DC
:1002E000040203193D170008F700031D7F293D1B79
:1002F0007F293D1A9129BD197F2920308229BD15FA
:100300003D123030F707B7010408B6003710831BE1
:1003100037147708BF00122136088400831337187A
:100320008317840A3D1F6F2908000B08B6008B1342
:10033000831603178C170C1400000000831203139C
:10034000B61B8B1703170C087F390319E929031310
:10035000B60003170D080313B70003170F080313A4
:10036000B8003608BF001221370803178D000313A9
:10037000380803178F0003130B08B9008B1383167B
:1003800003178C170C140000000083120313B91B11
:100390008B1703170C0D0E0D7F390319E929031371
:1003A000B60003170D080313B70003170F08031354
:1003B000B8003608BF001221370803178D00031359
:1003C000380803178F008D0A03198F0A0313952924
:1003D00003170313080003081F398300FF30AB0025
:1003E0002C10AC10AD010130AF00C230AE00B10135
:1003F000B001B3010A30B200B501B40183161F1475
:100400009F141F159F1107309C0083131F109F140A
:100410001F119F111F1383121F179F1783169F17FA
:1004200083121F1483160108C03902388100831219
:100430008B16C0308B04E3280130B600B7000221D0
:100440005430BF0012216430BF0012212030BF00A1
:100450001221093084002F08B7002E08B60032217F
:100460000030F8001F08C73978049F001A30F700E1
:10047000F70B382A00000130B6000230B700022125
:100480005A3003178D0000308F0003139521073079
:10049000B6000230B70002215D3003178D00003036
:1004A0008F00031395210D30B6000230B7000221F2
:1004B000603003178D0000308F0003139521AC1CB2
:1004C0007F2A1F151F19622A83161E088312B00087
:1004D0001E08B1000A30B6000130B70002215430C6
:1004E000BF0012216130BF0012212030BF00122155
:1004F000093084003108B7003008B6003221831675
:10050000061483120618912A2C140130B60002300A
:10051000B7000221633003178D0000308F000313F2
:1005200095212C1C3A2B32082E02F7002F08FA00D6
:100530003308031C330FFA027708F80031087A02F7
:10054000031CCD2A031DA82A780830020318CD2ADF
:100550002B112B088316870083120715AB102B086D
:1005600083168700831287100730B6000230B70069
:100570000221663003178D0000308F000313952190
:100580000D30B6000230B7000221693003178D002C
:1005900000308F0003139521042B32082E07F8003A
:1005A0002F08FA0033080318330FFA077A083102CC
:1005B000031C042B031DE02A300878020318042BC7
:1005C0002B112B088316870083120711AB102B0801
:1005D00083168700831287140730B6000230B700F5
:1005E00002216C3003178D0000308F00031395211A
:1005F0000D30B6000230B70002216F3003178D00B6
:1006000000308F00031395218316861483128618F9
:100610003A2B2C102B112B088316870083120711FD
:10062000AB102B0883168700831287100130B600A9
:100630000230B7000221723003178D0000308F00A6
:10064000031395210730B6000230B7000221753040
:1006500003178D0000308F00031395210D30B60075
:100660000230B7000221783003178D0000308F0070
:08067000031395215F2A6300CA
:02400E00723FFF
:00000001FF
;PIC16F877A
;CRC=E3E8  CREATED="06-jun-24 17:35"
